:100000000C942A000C943F000C943F000C943F0089
:100010000C943F000C943F000C943F000C943F0064
:100020000C943F000C943F000C943F000C943F0054
:100030000C943F000C943F000C943F000C943F0044
:100040000C943F000C943F000C943F000C943F0034
:100050000C943F0011241FBECFE5D4E0DEBFCDBF1E
:1000600010E0A0E6B0E0EEEAF1E002C005900D92EB
:10007000A037B107D9F70E94CE000C94D5000C949C
:1000800000008FEF8ABB0895E82FF0E0E05AFF4FA1
:1000900080818BBB08958FE087BB80EF88BB08957C
:1000A000CF9386B3803F51F42FEF8FE794E0215038
:1000B00080409040E1F700C000006EC0C6B387B337
:1000C000809587BB88B3809588BB8FEF9FE80197A9
:1000D000F1F700C0000086B3C82BCE3E21F481E0CA
:1000E0000E9444000CC0CE3D21F482E00E944400F6
:1000F0000CC0CE3B21F483E00E9444000CC0CE37FC
:1001000021F484E00E9444000CC0CD3E21F485E03F
:100110000E9444000CC0CD3D21F486E00E944400C2
:100120000CC0CD3B21F487E00E9444000CC0CD37C9
:1001300021F488E00E9444000CC0CB3E21F489E009
:100140000E9444000CC0CB3D21F48AE00E94440090
:100150000CC0CB3B21F48BE00E9444000CC0CB3799
:1001600021F48CE00E9444000CC0C73E21F48DE0D5
:100170000E9444000CC0C73D21F48EE00E94440060
:100180000BC0C73B21F48FE00E94440005C0C73775
:1001900019F480E10E944400CF9108950E9441002B
:0E01A0000E944B000E945000FDCFF894FFCF4C
:1001AE00C0F9A4B0999282F880908883C6A1868EF9
:00000001FF
